:100000000C94C4000C945D080C945D080C945D087D
:100010000C945D080C945D080C945D080C945D08CC
:100020000C945D080C945D080C945D080C945D08BC
:100030000C945D080C945D080C945D080C945D08AC
:100040000C945D080C945D080C945D080C945D089C
:100050000C945D080C945D080C945D080C945D088C
:100060000C945D080C945D080C945D080C945D087C
:100070000C945D080C945D080C945D080C945D086C
:100080000C945D080C94F0000C945D0813013B0285
:100090003B023B023B023B023B023B0227013B028D
:1000A0003B023B023B023B023B023B0255013B024F
:1000B0003B023B023B023B023B023B0240013B0254
:1000C0003B023B023B023B023B023B0294013B02F0
:1000D0003B023B023B023B023B023B027F013B02F5
:1000E0003B023B023B023B023B023B023B023B0228
:1000F0003B023B023B023B023B023B02DA013B027A
:100100003B023B023B023B023B023B02EA013B0259
:100110003B023B023B023B023B023B02F3013B0240
:100120003B023B023B023B023B023B021C025A02E7
:10013000740284029502A502B502C502D5023203FB
:10014000DE023E0308032704370446045604650410
:10015000740483049204E0049D04B404C9044E03AF
:100160006703760386039503A403B303C203150450
:10017000CD031504F10301000290800290029F005C
:1001800010C8029F02C3800011241FBECFEFD0E130
:10019000DEBFCDBFE6E7F1E041E019C0B791A7911E
:1001A00037912791079107FD0EC097918791EF0135
:1001B000F92FE82F0BBF07900D92A217B307D9F7BD
:1001C000FE011BBE04C01D92A217B307E1F7E7387A
:1001D000F40721F70E94B3060C942808F894FFCF87
:1001E0001F920F920FB60F9211240BB60F922F93FE
:1001F0003F934F935F936F937F938F939F93AF93AF
:10020000BF93EF93FF9380917100E82FE87F8E2FCB
:1002100090E0FC013897E135F10508F02CC1EA5B6C
:10022000FF4F0C943D086DEA72E088EA92E00E946C
:100230004806882309F41FC18091A80280937300A7
:10024000E4E7F0E080818F748068808314C16DEAF8
:1002500072E088EA92E00E944806882359F0809173
:10026000A80280937300E4E7F0E080818F748068D7
:10027000808301C1E4E7F0E0808180698083FBC076
:100280009091AD028091AB02890F8093AB02809177
:10029000B202891B8093B202E4E7F0E080818069BA
:1002A000808381E08093B502E6C0E091AB0281E0FB
:1002B0008E0F8093AB02F0E0E050FF4F808180937F
:1002C00073009091AB0289E2989F812D1124829551
:1002D0008F7024E6829F901911249093AB02809135
:1002E000B20281508093B2028091AD02815080931E
:1002F000AD02E4E7F0E0808180688083BCC090912B
:10030000AD028091AB02890F8093AB028091B20263
:10031000891B8093B202E4E7F0E0808180698083EA
:1003200082E08093B502A7C08091AD02882351F18D
:10033000E091AB0281E08E0F8093AB02F0E0E050E1
:10034000FF4F8081809373009091AB0289E2989F68
:10035000812D112482958F7024E6829F901911249B
:100360009093AB028091B20281508093B20280914F
:10037000AD0281508093AD02E4E7F0E080818068B7
:10038000808379C08091AA02882371F09091A9029C
:100390008091AB02981308C0E4E7F0E08081806AA6
:1003A00080831092AA0267C0E4E7F0E08081806950
:1003B000808361C08091B102823030F0E4E7F0E0E8
:1003C0008081806C808357C0E4E7F0E080818068A2
:1003D000808351C0E4E7F0E080818069808383E01E
:1003E0008093B50248C08091B00290E020917300E4
:1003F000FC01EC59FE4F2083019664E670E00E94F8
:10040000F4078093B0028091AE028F5F8093AE02BA
:100410008091B10281508093B102823030F0E4E7E4
:10042000F0E08081846C808326C0E4E7F0E0808186
:100430008B73846880831FC08091B00290E020910C
:100440007300FC01EC59FE4F2083019664E670E0D6
:100450000E94F4078093B0028091AE028F5F809378
:10046000AE028091B10281508093B102E4E7F0E0E6
:10047000808180698083FF91EF91BF91AF919F91BF
:100480008F917F916F915F914F913F912F910F903D
:0C0490000BBE0F900FBE0F901F90189530
:10049C00CF93DF9390E08C30910508F0E9C0FC011C
:1004AC00E956FF4F0C943D084CEB52E060E088E6B7
:1004BC000E94460861E080E992E00E943407809136
:1004CC00BC02807890919002892B8093BB024BEBFD
:1004DC0052E060E088E60E94E007CAC061E081E972
:1004EC0092E00E943407809191028093BB024BEB07
:1004FC0052E061E088E60E94E007BAC061E082E960
:10050C0092E00E943407809192028F7B8093BB0211
:10051C004BEB52E062E088E60E94E007A9C061E084
:10052C0083E992E00E943407809193028093BB028E
:10053C004BEB52E063E088E60E94E00799C061E073
:10054C0084E992E00E943407809194028093BB026C
:10055C004BEB52E064E088E60E94E00789C061E062
:10056C0085E992E00E943407809195028093BB024A
:10057C004BEB52E065E088E60E94E00779C061E051
:10058C0086E992E00E943407809196028093BB0228
:10059C004BEB52E066E088E60E94E00769C01092DF
:1005AC00BB024BEB52E067E088E60E94E00760C0BC
:1005BC004CEB52E060E088E60E94460861E080E97E
:1005CC0092E00E9434078091BC028078C0E9D2E0AE
:1005DC009881892B8093BB024BEB52E060E088E65C
:1005EC000E94E00761E082E992E00E9434078A8170
:1005FC008F7B8A8326E041E952E061E088E60E9425
:10060C000A0636C04CEB52E060E088E60E944608D1
:10061C0061E080E992E00E9434078091BC0280780E
:10062C00C0E9D2E09881892B8093BB024BEB52E05E
:10063C0060E088E60E94E00761E082E992E00E94B7
:10064C0034078A818F7B8A8327E041E952E061E09D
:10065C0088E60E940A060CC0C8E01092BB024BEB65
:10066C0052E06C2F88E60E94E007CF5FC034A9F7F8
:06067C00DF91CF9108950B
:10068200CF93DF9390E08C30910508F0CDC0EB0161
:10069200FC01E155FF4F0C943D0861E0CE010E9440
:1006A20034074CEB52E060E088E60E9446088091F5
:1006B200BC0280789881892B8093BB024BEB52E07D
:1006C20060E088E60E94E00781E0AFC061E0CE0111
:1006D2000E94340788818093BB024BEB52E061E0B9
:1006E20088E60E94E00781E0A0C061E0CE010E949E
:1006F200340788818F7B8093BB024BEB52E062E030
:1007020088E60E94E00781E090C061E0CE010E948D
:10071200340788818093BB024BEB52E063E088E6AA
:100722000E94E00781E081C061E0CE010E943407AF
:1007320088818093BB024BEB52E064E088E60E9422
:10074200E00781E072C061E0CE010E943407888137
:100752008093BB024BEB52E065E088E60E94E00723
:1007620081E063C061E0CE010E94340788818093FA
:10077200BB024BEB52E066E088E60E94E00781E0B4
:1007820054C088818093BB024BEB52E067E088E65D
:100792000E94E00781E049C067E0CE010E94340771
:1007A2004CEB52E060E088E60E9446088091BC0271
:1007B20080789881892B8093BB024BEB52E060E0FA
:1007C20088E60E94E0078A818F7B8A83AE014F5FB1
:1007D2005F4F26E061E088E60E940A0681E025C0BC
:1007E20067E0CE010E9434074CEB52E060E088E6FD
:1007F2000E9446088091BC0280789881892B809360
:10080200BB024BEB52E060E088E60E94E0078A817F
:100812008F7B8A83AE014F5F5F4F27E061E088E6FE
:100822000E940A0681E001C080E0DF91CF91089525
:100832001F93CF93DF9390E08C30910508F0BFC0F7
:10084200EB01FC01ED55FF4F0C943D084CEB52E0DF
:1008520060E088E60E9446088091BC028F77888318
:1008620061E0CE010E94B40711E0ACC04CEB52E053
:1008720061E088E60E9446088091BC02888361E0BC
:10088200CE010E94B40711E09DC04CEB52E062E041
:1008920088E60E9446088091BC028F7B888361E0D3
:1008A200CE010E94B40711E08DC04CEB52E063E030
:1008B20088E60E9446088091BC02888361E0CE01EE
:1008C2000E94B40711E07EC04CEB52E064E088E67F
:1008D2000E9446088091BC02888361E0CE010E949A
:1008E200B40711E06FC04CEB52E065E088E60E946D
:1008F20046088091BC02888361E0CE010E94B40761
:1009020011E060C04CEB52E066E088E60E944608C7
:100912008091BC02888361E0CE010E94B40711E09D
:1009220051C04CEB52E067E088E60E944608809195
:10093200BC02888311E046C04CEB52E060E088E6DE
:100942000E9446088091BC028F77FE018193AF011D
:1009520026E061E088E60E944C0867E0CE010E9432
:10096200B40711E02FC04AEB52E069E088E60E942A
:1009720046081091BA02113021F527E0AE0169E371
:1009820088E60E944C0867E0CE010E94B4071AC0B4
:100992004CEB52E060E088E60E9446088091BC027F
:1009A2008F77FE018193AF0127E061E088E60E9424
:1009B2004C0867E0CE010E94B40711E003C010E0CA
:0E09C20001C010E0812FDF91CF911F910895A9
:1009D000CF93DF9300D0CDB7DEB78091B9028823E3
:1009E00081F08091B402882309F45CC01092B902AE
:1009F0006091B8028091A2029091A3020E947F06AA
:100A000051C08091B602882309F44CC08091B30292
:100A1000811148C08091B20290E00696843691051B
:100A20000CF040C08091B70290E09C01220F331F70
:100A3000F901EC5FFD4F408151814093A402509336
:100A4000A502F901E853FE4F208131813093A302C2
:100A50002093A202FC01E05CFD4F80818093B802EC
:100A600059834A83AE014F5F5F4F62E080E50E9489
:100A700052086091B80280E50E949907882391F09E
:100A80008091B70290E001966EE170E00E94F40759
:100A90008093B7028091B60281508093B60281E0C4
:100AA0008093B9020E94CC070F900F90DF91CF91F5
:020AB0000895A7
:100AB2008091C202882381F08091B402882309F4D4
:100AC20055C01092C2026091C0028091A60290911C
:100AD200A7020E947F0608958091BD02882309F42F
:100AE20045C08091B302811141C08091B20290E071
:100AF200069684369105D4F58091BE0290E09C0161
:100B0200220F331FF901EE58FD4F40814093C1027D
:100B1200F901E25AFD4F208131813093A7022093DF
:100B2200A602FC01EA57FD4F80818093C00241EC8E
:100B320052E061E088E60E9452086091C00288E6B5
:100B42000E949907882391F08091BE0290E001965D
:100B52006AE070E00E94F4078093BE028091BD02B9
:0E0B620081508093BD0281E08093C20208950D
:100B7000CF93DF93362FEA012091B20270E042E674
:100B800050E0421B510946175707F4F14091AC025F
:100B900050E0FA01E050FF4F8083CA010196E4E67D
:100BA000F0E0BF010E94F4079927DC01A050BF4F7D
:100BB0003C930196BF010E94F4078093AC022E5F24
:100BC0002093B202332311F1FE013150232F30E084
:100BD0002F5F3F4F2C0F3D1FC4E6D0E090E04191C6
:100BE000DC01A050BF4F4C930196BE010E94F40758
:100BF0009091B2029F5F9093B202E217F30771F7F0
:100C00008093AC0281E003C080E001C081E0DF910D
:040C1000CF910895E3
:100C1400EF92FF920F931F93CF93DF93CDB7DEB77D
:100C2400342F952FEDB6FEB6E22FF0E031964DB796
:100C34005EB74E1B5F0B0FB6F8945EBF0FBE4DBF81
:100C44004F5F5F4FEDB7FEB76183222379F0A32F87
:100C5400B92F32960FEF020F10E00E5F1F4F040FF3
:100C6400151F9D919193E017F107D9F761E0620F89
:100C74000E9452080FB6F894FEBE0FBEEDBEDF917F
:0C0C8400CF911F910F91FF90EF90089509
:100C9000CF93DF93DC01FB019091B202923058F1C7
:100CA0002091AB0230E0E901C050DF4F88818C9386
:100CB0008091B20281508093B202C901019624E66C
:100CC00030E0B9010E94F4079927DC01A050BF4F22
:100CD0004C9140830196B9010E94F4078093AB02C6
:100CE0009091B20291509093B20281E020819217CC
:0E0CF00018F480E001C080E0DF91CF910895FC
:100CFE000F931F93CF93DF93DC01362F4091AE02FB
:100D0E00461720F16623F1F08091AF02FD019FEFAF
:100D1E00960FC92FD0E02196CA0FDB1F04E610E014
:100D2E0090E0DC01AC59BE4F2C9121930196B80195
:100D3E000E94F407EC17FD0799F78093AF02431B4F
:100D4E004093AE021092B302832F01C080E0DF9178
:080D5E00CF911F910F91089540
:100D66002FEF89E698E1215080409040E1F700C0DE
:100D7600000060EA76E881E090E00E947C0760EA85
:100D860076E881E090E00E945A080E94560841E009
:100D960061E088E992E00E94E0066FE972E089E08E
:100DA6000E9419040E9459050E94E8048FE19EE4FE
:0A0DB6000197F1F700C00000F5CF2F
:100DC0000F931F93CF93DF938C01C62FD42F0E94D4
:100DD0001C08882311F0D11114C080E00E945A072A
:100DE0008BE00E944E0288E00E944E02B80189E02A
:100DF0000E9441038C2F0E945A070E94330881E011
:100E000004C08C2F0E945A0780E0DF91CF911F9180
:040E10000F910895A1
:100E1400CF93DF93E091BD02EA3000F52091BF0249
:100E240030E0D901AA0FBB1FED01CE58DD4F9983E5
:100E34008883A25ABD4F4D935C93D901AA57BD4FE5
:100E44006C93C90101966AE070E00E94F4078093F4
:100E5400BF02EF5FE093BD0281E001C080E0DF915B
:040E6400CF9108958D
:100E6800DC01615092F40895952F405F56EF590FB9
:100E7800292F092E000C330B2A503109AAF701C07B
:100E880040E0940F9083615082F0FD01E60FF11D60
:100E980067FDFA959081292F092E000C330B2A50F3
:0C0EA800310972F39A5040E0E0CF089549
:100EB400CF93C82F4CEB52E060E088E60E944608CE
:100EC400C13031F48091BC028F778093BB0207C09C
:100ED400C1110DC08091BC0280688093BB024BEBB2
:100EE40052E060E088E60E94E00781E001C080E013
:040EF400CF910895FD
:100EF800603A26E8720721E08207910539F06038E8
:100F08007A418640910521F48AEF03C088E101C047
:100F180088E180937000E1E7F0E080818C7F808336
:0A0F280085E080937400789408952A
:100F3200982F8091AE02811114C02091B10221112B
:100F420011C0892F6093B102880F40E050E060E049
:100F52008F5F0E94B805882329F091E09093B30235
:060F6200089580E00895EF
:100F6800AC016150A2F0FA01E60FF11D67FDFA9598
:100F78009081292F22952F70322F330F220F220FA5
:100F8800220F230F9F70920F9083615062F708958C
:100F98008091B202882329F0E4E7F0E08081806242
:100FA80080838091AE02882321F081E08093B4028F
:080FB80008951092B40208959F
:100FC000CF93DF9300D0CDB7DEB76983FA0190816C
:100FD0009A83AE014F5F5F4F62E00E9452080F900C
:080FE0000F90DF91CF910895FD
:100FE80097FB072E16F4009407D077FD09D00E94CE
:100FF800080807FC05D03EF4909581959F4F089509
:08100800709561957F4F08957A
:10101000AA1BBB1B51E107C0AA1FBB1FA617B7071E
:1010200010F0A61BB70B881F991F5A95A9F780953A
:081030009095BC01CD0108956B
:101038004CEB52E068E088E60E9446088091BC02CA
:081048008C3209F080E00895EC
:10105000EC010E9462080E946108CE010E946308B0
:06106000CE010E945F08B2
:101066008CE28093BB024BEB52E068E088E60E947C
:04107600E0070895F2
:10107A00EE0FFF1F0024001C0BBE0790F691E02D17
:02108A000994C7
:0C108C00862F61E090E00E940A070895A2
:0C109800862F622F90E00E940A07089546
:0810A400880F0E94B8050895B1
:0810AC008FEF87BB18BA08950D
:0610B4000E947C07089574
:0410BA000C94000092
:0410BE000E94EE009E
:0210C20008958F
:0210C40008958D
:0210C60008958B
:0810C80000000001010100001D
:0710D0000000000101010016
:00000001FF
