:100000000C944C000C94CB010C94CB010C94CB01C0
:100010000C94CB010C94CB010C94CB010C94CB0130
:100020000C94CB010C94CB010C94CB010C94CB0120
:100030000C94CB010C94CB010C94CB010C94CB0110
:100040000C94CB010C94CB010C94CB010C94CB0100
:100050000C94CB010C94CB010C94CB010C94CB01F0
:100060000C94CB010C94CB010C94CB010C94CB01E0
:100070000C94CB010C94CB010C94CB010C94CB01D0
:100080000C94CB010C94CB010C94CB010100010822
:100090000003A4010801098011241FBECFEFD0E1A5
:1000A000DEBFCDBFECE8F0E040E019C0B791A7910A
:1000B00037912791079107FD0EC097918791EF0126
:1000C000F92FE82F0BBF07900D92A217B307D9F7AE
:1000D000FE011BBE04C01D92A217B307E1F7E83969
:1000E000F40721F70E9478000C94AE01F894FFCF3A
:1000F000CF93DF93CDB7DEB760970FB6F894DEBF2E
:100100000FBECDBFB89AB99ABA9A40E560EA76E8D0
:1001100081E090E00E94C2016FEF87E20E946C01D3
:1001200088E0E0E0F1E0DE01119601900D928A9501
:10013000E1F748E0BE016F5F7F4F80E090E00E94F2
:1001400023018FE19EE40197F1F700C0000048E031
:10015000BE01675F7F4F80E090E00E94D900AE0152
:100160004F5E5F4F31E0FE013996DE01119620E0CF
:1001700091918D9198130DC088B3832788BB2F5F11
:100180009FEF64E38CE0915060408040E1F700C055
:100190000000283009F4C19AE417F50749F79FEFEA
:1001A00023E264EF915020406040E1F700C000007E
:0201B000DACFA4
:1001B200CF92DF92EF92FF920F931F93CF93DF9331
:1001C200C82F192F6B01D42F0E94B90160E08091D2
:1001D20008010E947F01812F0E948D018C2F0E94B5
:1001E2008D010E94B90161E0809108010E947F01A6
:1001F200ED2EF12C81E0E81AF1081E141F0474F4AC
:10020200C0E086010C0F111D0E949801F801808345
:10021200CF5F8C2F90E08E159F059CF38D2F90E081
:100222000197E601C80FD91F0E94A30188830E948B
:10023200C701DF91CF911F910F91FF90EF90DF9057
:04024200CF900895BC
:10024600EF92FF920F931F93CF93DF93C82FD92F6F
:100256007B01142F0E94B90160E0809108010E9481
:100266007F018D2F0E948D018C2F0E948D011123FD
:1002760071F0E7011150012F10E00F5F1F4F0E0DB7
:100286001F1D89910E948D01C017D107D1F70E94C9
:10029600C701DF91CF911F910F91FF90EF900895C5
:1002A60010927100603A26E8720721E082079105F4
:1002B60021F480E28093700008C060387A4186405D
:1002C600910519F482E08093700084E080937400B5
:0202D600089589
:1002D800CF93DF93D82FC62F0E94B90160E08D2FEE
:1002E8000E947F018C2F0E948D0184E98093740005
:0602F800DF91CF91089593
:1002FE00880F6170682B6093730084E8809374009C
:0C030E00E4E7F0E080818823ECF708951C
:10031A008093730084E880937400E4E7F0E08081BE
:06032A008823ECF70895A2
:1003300084EC80937400E4E7F0E080818823ECF79C
:0603400080917300089596
:1003460084E880937400E4E7F0E080818823ECF78A
:0603560080917300089580
:10035C00EC010E94D0010E94CF01CE010E94D1017C
:06036C00CE010E94CD014C
:1003720084EA80937400E4E7F0E080818823ECF75C
:020382000895DC
:0A038400409308010E945301089500
:08038E0084E9809374000895D6
:040396000C940000C3
:04039A000E94760047
:02039E000895C0
:0203A0000895BE
:0203A2000895BC
:0803A400AABBCCDDEEFFABD0DB
:00000001FF
