:100000000C944C000C94D9010C94D9010C94D90196
:100010000C94D9010C94D9010C94D9010C94D901F8
:100020000C94D9010C94D9010C94D9010C94D901E8
:100030000C94D9010C94D9010C94D9010C94D901D8
:100040000C94D9010C94D9010C94D9010C94D901C8
:100050000C94D9010C94D9010C94D9010C94D901B8
:100060000C94D9010C94D9010C94D9010C94D901A8
:100070000C94D9010C94D9010C94D9010C94D90198
:100080000C94D9010C94D9010C94D90101000108F8
:100090000003C0010801098011241FBECFEFD0E189
:1000A000DEBFCDBFECE8F0E040E019C0B791A7910A
:1000B00037912791079107FD0EC097918791EF0126
:1000C000F92FE82F0BBF07900D92A217B307D9F7AE
:1000D000FE011BBE04C01D92A217B307E1F7E83969
:1000E000F40721F70E9478000C94A001F894FFCF48
:1000F000CF93DF93CDB7DEB760970FB6F894DEBF2E
:100100000FBECDBFB89AB99ABA9A40E560EA76E8D0
:1001100081E090E00E94D5016FEF87E20E947301B9
:1001200088E0E0E0F1E0DE01199601900D928A95F9
:10013000E1F78E01075F1F4F48E0B80180E090E0D3
:100140000E9426018FE19EE40197F1F700C00000B4
:1001500048E0BE016F5F7F4F80E090E00E94DB00CF
:1001600031E0FE013196D80120E003C0E017F1072D
:1001700051F091918D91981781F02830B9F7C19A7B
:10018000E017F107B1F79FEF23E244EF91502040D1
:100190004040E1F700C00000E4CF88B3832788BB6C
:1001A0002F5F9FEF44E38CE0915040408040E1F7A7
:0601B00000C00000E2CFD8
:1001B600AF92BF92CF92DF92EF92FF921F93CF93AF
:1001C600DF93EC017B01A42E0E94C90160E08091BF
:1001D60008010E9493018D2F0E94AB018C2F0E9473
:1001E600AB010E94C90161E0809108010E94930160
:1001F600B12C650181E0C81AD1081C141D047CF4D9
:1002060010E080E090E0E701C80FD91F0E94B50119
:1002160088831F5F812F90E08C159D05A4F381E0F4
:10022600A81AB108E701CA0DDB1D0E94BF01888329
:10023600DF91CF911F91FF90EF90DF90CF90BF900D
:06024600AF900C94D10101
:10024C00FF920F931F93CF93DF93EC01F62E172F92
:10025C00042F0E94C90160E0809108010E94930163
:10026C008D2F0E94AB018C2F0E94AB01002371F0EB
:10027C00CF2DD12F015010E00F5F1F4F0C0F1D1F02
:10028C0089910E94AB01C017D107D1F7DF91CF91B3
:0A029C001F910F91FF900C94D10107
:1002A60010927100603A26E8720721E082079105F4
:1002B60081F060387A418640910521F084E0809390
:1002C6007400089582E08093700084E08093740047
:1002D600089580E28093700084E08093740008950E
:1002E60094EA909374009091740097FFFCCF90E08D
:1002F600880F991F8093730084E88093740080911F
:10030600740087FFFCCF6093730084E880937400C9
:100316008091740087FFFCCF84E980937400089570
:10032600880F6170682B6093730084E88093740073
:0A0336008091740087FFFCCF08954A
:10034000EC010E94DE010E94DD01CE010E94DF016E
:06035000CE010E94DB015A
:100356008093730084E8809374008091740087FF13
:04036600FCCF08952B
:10036A0084EC809374008091740087FFFCCF8091A5
:04037A00730008956F
:10037E0084E8809374008091740087FFFCCF809195
:04038E00730008955B
:1003920084EA809374008091740087FFFCCF0895F3
:0803A20084E9809374000895C2
:0803AA00409308010C9453017B
:0403B2000C940000A7
:0403B6000E9476002B
:0203BA000895A4
:0203BC000895A2
:0203BE000895A0
:0803C000AABBCCDDEEFFABD0BF
:00000001FF
